{
  "_format": "hh-sol-artifact-1",
  "contractName": "BillyHerrington",
  "sourceName": "contracts/BillyHerrington.sol",
  "abi": [
    {
      "inputs": [
        {
          "internalType": "string",
          "name": "name_",
          "type": "string"
        },
        {
          "internalType": "string",
          "name": "symbol_",
          "type": "string"
        }
      ],
      "stateMutability": "nonpayable",
      "type": "constructor"
    },
    {
      "anonymous": false,
      "inputs": [
        {
          "indexed": true,
          "internalType": "address",
          "name": "owner",
          "type": "address"
        },
        {
          "indexed": true,
          "internalType": "address",
          "name": "spender",
          "type": "address"
        },
        {
          "indexed": false,
          "internalType": "uint256",
          "name": "value",
          "type": "uint256"
        }
      ],
      "name": "Approval",
      "type": "event"
    },
    {
      "anonymous": false,
      "inputs": [
        {
          "indexed": true,
          "internalType": "address",
          "name": "from",
          "type": "address"
        },
        {
          "indexed": true,
          "internalType": "address",
          "name": "to",
          "type": "address"
        },
        {
          "indexed": false,
          "internalType": "uint256",
          "name": "value",
          "type": "uint256"
        }
      ],
      "name": "Transfer",
      "type": "event"
    },
    {
      "inputs": [],
      "name": "_totalSupply",
      "outputs": [
        {
          "internalType": "uint256",
          "name": "",
          "type": "uint256"
        }
      ],
      "stateMutability": "view",
      "type": "function"
    },
    {
      "inputs": [
        {
          "internalType": "address",
          "name": "owner",
          "type": "address"
        },
        {
          "internalType": "address",
          "name": "spender",
          "type": "address"
        }
      ],
      "name": "allowance",
      "outputs": [
        {
          "internalType": "uint256",
          "name": "",
          "type": "uint256"
        }
      ],
      "stateMutability": "view",
      "type": "function"
    },
    {
      "inputs": [
        {
          "internalType": "address",
          "name": "spender",
          "type": "address"
        },
        {
          "internalType": "uint256",
          "name": "amount",
          "type": "uint256"
        }
      ],
      "name": "approve",
      "outputs": [
        {
          "internalType": "bool",
          "name": "",
          "type": "bool"
        }
      ],
      "stateMutability": "nonpayable",
      "type": "function"
    },
    {
      "inputs": [
        {
          "internalType": "address",
          "name": "account",
          "type": "address"
        }
      ],
      "name": "balanceOf",
      "outputs": [
        {
          "internalType": "uint256",
          "name": "",
          "type": "uint256"
        }
      ],
      "stateMutability": "view",
      "type": "function"
    },
    {
      "inputs": [
        {
          "internalType": "address",
          "name": "account",
          "type": "address"
        },
        {
          "internalType": "uint256",
          "name": "amount",
          "type": "uint256"
        }
      ],
      "name": "burn",
      "outputs": [
        {
          "internalType": "bool",
          "name": "",
          "type": "bool"
        }
      ],
      "stateMutability": "nonpayable",
      "type": "function"
    },
    {
      "inputs": [],
      "name": "decimals",
      "outputs": [
        {
          "internalType": "uint8",
          "name": "",
          "type": "uint8"
        }
      ],
      "stateMutability": "view",
      "type": "function"
    },
    {
      "inputs": [
        {
          "internalType": "address",
          "name": "spender",
          "type": "address"
        },
        {
          "internalType": "uint256",
          "name": "subtractedValue",
          "type": "uint256"
        }
      ],
      "name": "decreaseAllowance",
      "outputs": [
        {
          "internalType": "bool",
          "name": "",
          "type": "bool"
        }
      ],
      "stateMutability": "nonpayable",
      "type": "function"
    },
    {
      "inputs": [
        {
          "internalType": "address",
          "name": "spender",
          "type": "address"
        },
        {
          "internalType": "uint256",
          "name": "addedValue",
          "type": "uint256"
        }
      ],
      "name": "increaseAllowance",
      "outputs": [
        {
          "internalType": "bool",
          "name": "",
          "type": "bool"
        }
      ],
      "stateMutability": "nonpayable",
      "type": "function"
    },
    {
      "inputs": [],
      "name": "name",
      "outputs": [
        {
          "internalType": "string",
          "name": "",
          "type": "string"
        }
      ],
      "stateMutability": "view",
      "type": "function"
    },
    {
      "inputs": [],
      "name": "symbol",
      "outputs": [
        {
          "internalType": "string",
          "name": "",
          "type": "string"
        }
      ],
      "stateMutability": "view",
      "type": "function"
    },
    {
      "inputs": [],
      "name": "totalSupply",
      "outputs": [
        {
          "internalType": "uint256",
          "name": "",
          "type": "uint256"
        }
      ],
      "stateMutability": "view",
      "type": "function"
    },
    {
      "inputs": [
        {
          "internalType": "address",
          "name": "to",
          "type": "address"
        },
        {
          "internalType": "uint256",
          "name": "amount",
          "type": "uint256"
        }
      ],
      "name": "transfer",
      "outputs": [
        {
          "internalType": "bool",
          "name": "",
          "type": "bool"
        }
      ],
      "stateMutability": "nonpayable",
      "type": "function"
    },
    {
      "inputs": [
        {
          "internalType": "address",
          "name": "from",
          "type": "address"
        },
        {
          "internalType": "address",
          "name": "to",
          "type": "address"
        },
        {
          "internalType": "uint256",
          "name": "amount",
          "type": "uint256"
        }
      ],
      "name": "transferFrom",
      "outputs": [
        {
          "internalType": "bool",
          "name": "",
          "type": "bool"
        }
      ],
      "stateMutability": "nonpayable",
      "type": "function"
    }
  ],
  "bytecode": "0x60806040523480156200001157600080fd5b50604051620015b8380380620015b8833981016040819052620000349162000420565b600362000042838262000589565b50600462000051828262000589565b506200006a336b033b2e3c9fd0803ce80000006200014e565b62000095732fc963d61f46d2cd8e3932296586891145e747e16a2116545850052128000000620001e4565b50620000c17393cf6a53460f6a5bacc6ce42f8dd8aff9f4a84c26a2116545850052128000000620001e4565b50620000ed73f1ead862d662a397d3c329dc2e7ab54c7b49b87a6a2116545850052128000000620001e4565b506200011973e90bc41757f745e289ffba379188bd1a5187ecaf6a2116545850052128000000620001e4565b50620001457304ad2aa0274771fa51483fb166dcfbb094527eda6a2116545850052128000000620001e4565b505050620007ce565b6001600160a01b038216620001805760405162461bcd60e51b8152600401620001779062000659565b60405180910390fd5b8060026000828254620001949190620006ab565b90915550506001600160a01b038216600081815260208190526040808220805485019055516000805160206200159883398151915290620001d7908590620006c1565b60405180910390a35b5050565b600033620001f481858562000205565b60019150505b92915050565b505050565b6001600160a01b0383166200022e5760405162461bcd60e51b8152600401620001779062000713565b6001600160a01b038216620002575760405162461bcd60e51b8152600401620001779062000766565b6001600160a01b03831660009081526020819052604090205481811015620002935760405162461bcd60e51b81526004016200017790620007bc565b6001600160a01b0380851660008181526020819052604080822086860390559286168082529083902080548601905591516000805160206200159883398151915290620002e2908690620006c1565b60405180910390a350505050565b634e487b7160e01b600052604160045260246000fd5b601f19601f83011681018181106001600160401b03821117156200032e576200032e620002f0565b6040525050565b60006200034160405190565b90506200034f828262000306565b919050565b60006001600160401b03821115620003705762000370620002f0565b601f19601f83011660200192915050565b60005b838110156200039e57818101518382015260200162000384565b50506000910152565b6000620003be620003b88462000354565b62000335565b905082815260208101848484011115620003db57620003db600080fd5b620003e884828562000381565b509392505050565b600082601f830112620004065762000406600080fd5b815162000418848260208601620003a7565b949350505050565b60008060408385031215620004385762000438600080fd5b82516001600160401b03811115620004535762000453600080fd5b6200046185828601620003f0565b92505060208301516001600160401b03811115620004825762000482600080fd5b6200049085828601620003f0565b9150509250929050565b634e487b7160e01b600052602260045260246000fd5b600281046001821680620004c557607f821691505b602082108103620004da57620004da6200049a565b50919050565b6000620001fa620004ee8381565b90565b620004fc83620004e0565b815460001960089490940293841b1916921b91909117905550565b600062000200818484620004f1565b81811015620001e0576200053c60008262000517565b60010162000526565b601f82111562000200576000818152602090206020601f850104810160208510156200056e5750805b620005826020601f86010483018262000526565b5050505050565b81516001600160401b03811115620005a557620005a5620002f0565b620005b18254620004b0565b620005be82828562000545565b6020601f831160018114620005f55760008415620005dc5750858201515b600019600886021c198116600286021786555062000651565b600085815260208120601f198616915b8281101562000627578885015182556020948501946001909201910162000605565b86831015620006445784890151600019601f89166008021c191682555b6001600288020188555050505b505050505050565b60208082528101620001fa81601f81527f45524332303a206d696e7420746f20746865207a65726f206164647265737300602082015260400190565b634e487b7160e01b600052601160045260246000fd5b80820180821115620001fa57620001fa62000695565b81815260208101620001fa565b602581526000602082017f45524332303a207472616e736665722066726f6d20746865207a65726f206164815264647265737360d81b602082015291505b5060400190565b60208082528101620001fa81620006ce565b602381526000602082017f45524332303a207472616e7366657220746f20746865207a65726f206164647281526265737360e81b602082015291506200070c565b60208082528101620001fa8162000725565b602681526000602082017f45524332303a207472616e7366657220616d6f756e7420657863656564732062815265616c616e636560d01b602082015291506200070c565b60208082528101620001fa8162000778565b610dba80620007de6000396000f3fe608060405234801561001057600080fd5b50600436106100df5760003560e01c80633eaaf86b1161008c5780639dc29fac116100665780639dc29fac146101af578063a457c2d7146101c2578063a9059cbb146101d5578063dd62ed3e146101e857600080fd5b80633eaaf86b1461016857806370a082311461017157806395d89b41146101a757600080fd5b806323b872dd116100bd57806323b872dd14610133578063313ce56714610146578063395093511461015557600080fd5b806306fdde03146100e4578063095ea7b31461010257806318160ddd14610122575b600080fd5b6100ec61022e565b6040516100f991906107c4565b60405180910390f35b61011561011036600461082d565b6102c0565b6040516100f99190610874565b6002545b6040516100f99190610888565b610115610141366004610896565b6102da565b60126040516100f991906108ef565b61011561016336600461082d565b6102fe565b61012660025481565b61012661017f3660046108fd565b73ffffffffffffffffffffffffffffffffffffffff1660009081526020819052604090205490565b6100ec61034a565b6101156101bd36600461082d565b610359565b6101156101d036600461082d565b61036e565b6101156101e336600461082d565b6103d8565b6101266101f6366004610926565b73ffffffffffffffffffffffffffffffffffffffff918216600090815260016020908152604080832093909416825291909152205490565b60606003805461023d90610988565b80601f016020809104026020016040519081016040528092919081815260200182805461026990610988565b80156102b65780601f1061028b576101008083540402835291602001916102b6565b820191906000526020600020905b81548152906001019060200180831161029957829003601f168201915b5050505050905090565b6000336102ce8185856103e6565b60019150505b92915050565b6000336102e88582856104c1565b6102f385858561054e565b506001949350505050565b33600081815260016020908152604080832073ffffffffffffffffffffffffffffffffffffffff871684529091528120549091906102ce90829086906103459087906109e3565b6103e6565b60606004805461023d90610988565b60006103658383610672565b50600192915050565b33600081815260016020908152604080832073ffffffffffffffffffffffffffffffffffffffff87168452909152812054909190838110156103cb5760405162461bcd60e51b81526004016103c290610a53565b60405180910390fd5b6102f382868684036103e6565b6000336102ce81858561054e565b73ffffffffffffffffffffffffffffffffffffffff83166104195760405162461bcd60e51b81526004016103c290610abd565b73ffffffffffffffffffffffffffffffffffffffff821661044c5760405162461bcd60e51b81526004016103c290610b27565b73ffffffffffffffffffffffffffffffffffffffff80841660008181526001602090815260408083209487168084529490915290819020849055517f8c5be1e5ebec7d5bd14f71427d1e84f3dd0314c0f7b2291e5b200ac8c7c3b925906104b4908590610888565b60405180910390a3505050565b73ffffffffffffffffffffffffffffffffffffffff8381166000908152600160209081526040808320938616835292905220547fffffffffffffffffffffffffffffffffffffffffffffffffffffffffffffffff8114610548578181101561053b5760405162461bcd60e51b81526004016103c290610b37565b61054884848484036103e6565b50505050565b73ffffffffffffffffffffffffffffffffffffffff83166105815760405162461bcd60e51b81526004016103c290610bcc565b73ffffffffffffffffffffffffffffffffffffffff82166105b45760405162461bcd60e51b81526004016103c290610c36565b73ffffffffffffffffffffffffffffffffffffffff8316600090815260208190526040902054818110156105fa5760405162461bcd60e51b81526004016103c290610ca0565b73ffffffffffffffffffffffffffffffffffffffff80851660008181526020819052604080822086860390559286168082529083902080548601905591517fddf252ad1be2c89b69c2b068fc378daa952ba7f163c4a11628f55a4df523b3ef90610665908690610888565b60405180910390a3610548565b73ffffffffffffffffffffffffffffffffffffffff82166106a55760405162461bcd60e51b81526004016103c290610d0a565b73ffffffffffffffffffffffffffffffffffffffff8216600090815260208190526040902054818110156106eb5760405162461bcd60e51b81526004016103c290610d74565b73ffffffffffffffffffffffffffffffffffffffff83166000818152602081905260408082208585039055600280548690039055519091907fddf252ad1be2c89b69c2b068fc378daa952ba7f163c4a11628f55a4df523b3ef906104b4908690610888565b60005b8381101561076b578181015183820152602001610753565b50506000910152565b600061077e825190565b808452602084019350610795818560208601610750565b601f017fffffffffffffffffffffffffffffffffffffffffffffffffffffffffffffffe0169290920192915050565b602080825281016107d58184610774565b9392505050565b600073ffffffffffffffffffffffffffffffffffffffff82166102d4565b610803816107dc565b811461080e57600080fd5b50565b80356102d4816107fa565b80610803565b80356102d48161081c565b6000806040838503121561084357610843600080fd5b600061084f8585610811565b925050602061086085828601610822565b9150509250929050565b8015155b82525050565b602081016102d4828461086a565b8061086e565b602081016102d48284610882565b6000806000606084860312156108ae576108ae600080fd5b60006108ba8686610811565b93505060206108cb86828701610811565b92505060406108dc86828701610822565b9150509250925092565b60ff811661086e565b602081016102d482846108e6565b60006020828403121561091257610912600080fd5b600061091e8484610811565b949350505050565b6000806040838503121561093c5761093c600080fd5b60006109488585610811565b925050602061086085828601610811565b7f4e487b7100000000000000000000000000000000000000000000000000000000600052602260045260246000fd5b60028104600182168061099c57607f821691505b6020821081036109ae576109ae610959565b50919050565b7f4e487b7100000000000000000000000000000000000000000000000000000000600052601160045260246000fd5b808201808211156102d4576102d46109b4565b602581526000602082017f45524332303a2064656372656173656420616c6c6f77616e63652062656c6f7781527f207a65726f000000000000000000000000000000000000000000000000000000602082015291505b5060400190565b602080825281016102d4816109f6565b602481526000602082017f45524332303a20617070726f76652066726f6d20746865207a65726f2061646481527f726573730000000000000000000000000000000000000000000000000000000060208201529150610a4c565b602080825281016102d481610a63565b602281526000602082017f45524332303a20617070726f766520746f20746865207a65726f20616464726581527f737300000000000000000000000000000000000000000000000000000000000060208201529150610a4c565b602080825281016102d481610acd565b602080825281016102d481601d81527f45524332303a20696e73756666696369656e7420616c6c6f77616e6365000000602082015260400190565b602581526000602082017f45524332303a207472616e736665722066726f6d20746865207a65726f20616481527f647265737300000000000000000000000000000000000000000000000000000060208201529150610a4c565b602080825281016102d481610b72565b602381526000602082017f45524332303a207472616e7366657220746f20746865207a65726f206164647281527f657373000000000000000000000000000000000000000000000000000000000060208201529150610a4c565b602080825281016102d481610bdc565b602681526000602082017f45524332303a207472616e7366657220616d6f756e742065786365656473206281527f616c616e6365000000000000000000000000000000000000000000000000000060208201529150610a4c565b602080825281016102d481610c46565b602181526000602082017f45524332303a206275726e2066726f6d20746865207a65726f2061646472657381527f730000000000000000000000000000000000000000000000000000000000000060208201529150610a4c565b602080825281016102d481610cb0565b602281526000602082017f45524332303a206275726e20616d6f756e7420657863656564732062616c616e81527f636500000000000000000000000000000000000000000000000000000000000060208201529150610a4c565b602080825281016102d481610d1a56fea2646970667358221220c073ddb2cbafc3a4dc5a9c1178f641863646458d4aa8e5e01299e0c0a3af904164736f6c63430008120033ddf252ad1be2c89b69c2b068fc378daa952ba7f163c4a11628f55a4df523b3ef",
  "linkReferences": {},
  "deployedLinkReferences": {}
}